{
  "_format": "hh-sol-artifact-1",
  "contractName": "ReputationContract",
  "sourceName": "contracts/ReputationContract.sol",
  "abi": [
    {
      "anonymous": false,
      "inputs": [
        {
          "indexed": true,
          "internalType": "address",
          "name": "user",
          "type": "address"
        },
        {
          "indexed": false,
          "internalType": "string",
          "name": "behaviorHash",
          "type": "string"
        },
        {
          "indexed": false,
          "internalType": "uint256",
          "name": "reputation",
          "type": "uint256"
        }
      ],
      "name": "ReputationUpdated",
      "type": "event"
    },
    {
      "inputs": [
        {
          "internalType": "address",
          "name": "user",
          "type": "address"
        }
      ],
      "name": "getHistoryCount",
      "outputs": [
        {
          "internalType": "uint256",
          "name": "",
          "type": "uint256"
        }
      ],
      "stateMutability": "view",
      "type": "function"
    },
    {
      "inputs": [
        {
          "internalType": "address",
          "name": "user",
          "type": "address"
        }
      ],
      "name": "getReputation",
      "outputs": [
        {
          "internalType": "uint256",
          "name": "",
          "type": "uint256"
        }
      ],
      "stateMutability": "view",
      "type": "function"
    },
    {
      "inputs": [
        {
          "internalType": "address",
          "name": "",
          "type": "address"
        }
      ],
      "name": "reputationScore",
      "outputs": [
        {
          "internalType": "uint256",
          "name": "",
          "type": "uint256"
        }
      ],
      "stateMutability": "view",
      "type": "function"
    },
    {
      "inputs": [
        {
          "internalType": "string",
          "name": "behaviorHash",
          "type": "string"
        },
        {
          "internalType": "bool",
          "name": "suspicious",
          "type": "bool"
        }
      ],
      "name": "updateReputation",
      "outputs": [],
      "stateMutability": "nonpayable",
      "type": "function"
    }
  ],
  "bytecode": "0x6080604052348015600f57600080fd5b50610b238061001f6000396000f3fe608060405234801561001057600080fd5b506004361061004c5760003560e01c806350d061cb146100515780639c89a0e214610081578063b1fdb11b146100b1578063e7c2b426146100e1575b600080fd5b61006b6004803603810190610066919061048e565b6100fd565b60405161007891906104d4565b60405180910390f35b61009b6004803603810190610096919061048e565b610115565b6040516100a891906104d4565b60405180910390f35b6100cb60048036038101906100c6919061048e565b61015e565b6040516100d891906104d4565b60405180910390f35b6100fb60048036038101906100f6919061066d565b6101a9565b005b60016020528060005260406000206000915090505481565b6000600160008373ffffffffffffffffffffffffffffffffffffffff1673ffffffffffffffffffffffffffffffffffffffff168152602001908152602001600020549050919050565b60008060008373ffffffffffffffffffffffffffffffffffffffff1673ffffffffffffffffffffffffffffffffffffffff168152602001908152602001600020805490509050919050565b8080156101f557506000600160003373ffffffffffffffffffffffffffffffffffffffff1673ffffffffffffffffffffffffffffffffffffffff16815260200190815260200160002054115b156102555760018060003373ffffffffffffffffffffffffffffffffffffffff1673ffffffffffffffffffffffffffffffffffffffff168152602001908152602001600020600082825461024991906106f8565b925050819055506102ac565b60018060003373ffffffffffffffffffffffffffffffffffffffff1673ffffffffffffffffffffffffffffffffffffffff16815260200190815260200160002060008282546102a4919061072c565b925050819055505b6000803373ffffffffffffffffffffffffffffffffffffffff1673ffffffffffffffffffffffffffffffffffffffff1681526020019081526020016000206040518060400160405280848152602001600160003373ffffffffffffffffffffffffffffffffffffffff1673ffffffffffffffffffffffffffffffffffffffff168152602001908152602001600020548152509080600181540180825580915050600190039060005260206000209060020201600090919091909150600082015181600001908161037c9190610977565b506020820151816001015550503373ffffffffffffffffffffffffffffffffffffffff167f03fad0158a18b8e7724897436ce145a3f02a261857f2049bb4baf7297bbb145383600160003373ffffffffffffffffffffffffffffffffffffffff1673ffffffffffffffffffffffffffffffffffffffff16815260200190815260200160002054604051610410929190610abd565b60405180910390a25050565b6000604051905090565b600080fd5b600080fd5b600073ffffffffffffffffffffffffffffffffffffffff82169050919050565b600061045b82610430565b9050919050565b61046b81610450565b811461047657600080fd5b50565b60008135905061048881610462565b92915050565b6000602082840312156104a4576104a3610426565b5b60006104b284828501610479565b91505092915050565b6000819050919050565b6104ce816104bb565b82525050565b60006020820190506104e960008301846104c5565b92915050565b600080fd5b600080fd5b6000601f19601f8301169050919050565b7f4e487b7100000000000000000000000000000000000000000000000000000000600052604160045260246000fd5b610542826104f9565b810181811067ffffffffffffffff821117156105615761056061050a565b5b80604052505050565b600061057461041c565b90506105808282610539565b919050565b600067ffffffffffffffff8211156105a05761059f61050a565b5b6105a9826104f9565b9050602081019050919050565b82818337600083830152505050565b60006105d86105d384610585565b61056a565b9050828152602081018484840111156105f4576105f36104f4565b5b6105ff8482856105b6565b509392505050565b600082601f83011261061c5761061b6104ef565b5b813561062c8482602086016105c5565b91505092915050565b60008115159050919050565b61064a81610635565b811461065557600080fd5b50565b60008135905061066781610641565b92915050565b6000806040838503121561068457610683610426565b5b600083013567ffffffffffffffff8111156106a2576106a161042b565b5b6106ae85828601610607565b92505060206106bf85828601610658565b9150509250929050565b7f4e487b7100000000000000000000000000000000000000000000000000000000600052601160045260246000fd5b6000610703826104bb565b915061070e836104bb565b9250828203905081811115610726576107256106c9565b5b92915050565b6000610737826104bb565b9150610742836104bb565b925082820190508082111561075a576107596106c9565b5b92915050565b600081519050919050565b7f4e487b7100000000000000000000000000000000000000000000000000000000600052602260045260246000fd5b600060028204905060018216806107b257607f821691505b6020821081036107c5576107c461076b565b5b50919050565b60008190508160005260206000209050919050565b60006020601f8301049050919050565b600082821b905092915050565b60006008830261082d7fffffffffffffffffffffffffffffffffffffffffffffffffffffffffffffffff826107f0565b61083786836107f0565b95508019841693508086168417925050509392505050565b6000819050919050565b600061087461086f61086a846104bb565b61084f565b6104bb565b9050919050565b6000819050919050565b61088e83610859565b6108a261089a8261087b565b8484546107fd565b825550505050565b600090565b6108b76108aa565b6108c2818484610885565b505050565b5b818110156108e6576108db6000826108af565b6001810190506108c8565b5050565b601f82111561092b576108fc816107cb565b610905846107e0565b81016020851015610914578190505b610928610920856107e0565b8301826108c7565b50505b505050565b600082821c905092915050565b600061094e60001984600802610930565b1980831691505092915050565b6000610967838361093d565b9150826002028217905092915050565b61098082610760565b67ffffffffffffffff8111156109995761099861050a565b5b6109a3825461079a565b6109ae8282856108ea565b600060209050601f8311600181146109e157600084156109cf578287015190505b6109d9858261095b565b865550610a41565b601f1984166109ef866107cb565b60005b82811015610a17578489015182556001820191506020850194506020810190506109f2565b86831015610a345784890151610a30601f89168261093d565b8355505b6001600288020188555050505b505050505050565b600082825260208201905092915050565b60005b83811015610a78578082015181840152602081019050610a5d565b60008484015250505050565b6000610a8f82610760565b610a998185610a49565b9350610aa9818560208601610a5a565b610ab2816104f9565b840191505092915050565b60006040820190508181036000830152610ad78185610a84565b9050610ae660208301846104c5565b939250505056fea2646970667358221220e3ebe7054422ae7b88878b5f6980493707b3510bf420342bb310ed543c02287664736f6c634300081c0033",
  "linkReferences": {},
  "deployedLinkReferences": {}
}